:100000000C9434000C943E000C943E000C943E0082
:100010000C943E000C943E000C943E000C943E0068
:100020000C943E000C943E000C943E000C943E0058
:100030000C943E000C943E000C943E000C943E0048
:100040000C943E000C943E000C943E000C943E0038
:100050000C943E000C943E000C943E000C943E0028
:100060000C943E000C943E0011241FBECFEFD8E04C
:10007000DEBFCDBF0E9440000C945D000C940000D8
:1000800088EF84B987E085B98CE38AB907C081110C
:1000900012C0911110C09BB1892B8BB923B183B1D0
:1000A000827093B1947020FDF2CF882321F09923C0
:0E00B00011F080E0F0CF84E0EECFF894FFCFA7
:00000001FF
